{
  "contractName": "Challenge",
  "abi": [
    {
      "constant": true,
      "inputs": [],
      "name": "finalBalance",
      "outputs": [
        {
          "name": "",
          "type": "uint256"
        }
      ],
      "payable": false,
      "stateMutability": "view",
      "type": "function",
      "signature": "0x2129e25a"
    },
    {
      "constant": true,
      "inputs": [],
      "name": "paused",
      "outputs": [
        {
          "name": "",
          "type": "bool"
        }
      ],
      "payable": false,
      "stateMutability": "view",
      "type": "function",
      "signature": "0x5c975abb"
    },
    {
      "constant": true,
      "inputs": [],
      "name": "extended",
      "outputs": [
        {
          "name": "",
          "type": "bool"
        }
      ],
      "payable": false,
      "stateMutability": "view",
      "type": "function",
      "signature": "0x6f3921ee"
    },
    {
      "constant": true,
      "inputs": [],
      "name": "completed",
      "outputs": [
        {
          "name": "",
          "type": "bool"
        }
      ],
      "payable": false,
      "stateMutability": "view",
      "type": "function",
      "signature": "0x9d9a7fe9"
    },
    {
      "inputs": [
        {
          "name": "_challenger",
          "type": "address"
        },
        {
          "name": "_contender",
          "type": "address"
        },
        {
          "name": "_days",
          "type": "uint256"
        },
        {
          "name": "_hours",
          "type": "uint256"
        },
        {
          "name": "_minutes",
          "type": "uint256"
        },
        {
          "name": "_description",
          "type": "string"
        }
      ],
      "payable": true,
      "stateMutability": "payable",
      "type": "constructor",
      "signature": "constructor"
    },
    {
      "payable": true,
      "stateMutability": "payable",
      "type": "fallback"
    },
    {
      "anonymous": false,
      "inputs": [
        {
          "indexed": false,
          "name": "newExpiration",
          "type": "uint256"
        }
      ],
      "name": "ExtendExpiration",
      "type": "event",
      "signature": "0x9ec47da117402e5ec2abbf08b216f5fe88d079a9db165cfbff8e5383e649e255"
    },
    {
      "anonymous": false,
      "inputs": [
        {
          "indexed": false,
          "name": "flag",
          "type": "bool"
        }
      ],
      "name": "CompleteChallenge",
      "type": "event",
      "signature": "0xf034adbccb0e6e0ef01b45231d49ec3f1a74c0fc0e29b6c3d9e2cb090b071176"
    },
    {
      "anonymous": false,
      "inputs": [
        {
          "indexed": false,
          "name": "balance",
          "type": "uint256"
        }
      ],
      "name": "FlushBalance",
      "type": "event",
      "signature": "0x29b69b0ef017770509a3a02582408136e3e3492cdfec48431dfbeedbe39c7ce2"
    },
    {
      "constant": false,
      "inputs": [
        {
          "name": "_days",
          "type": "uint256"
        },
        {
          "name": "_hours",
          "type": "uint256"
        },
        {
          "name": "_minutes",
          "type": "uint256"
        }
      ],
      "name": "extendExpiration",
      "outputs": [
        {
          "name": "",
          "type": "bool"
        }
      ],
      "payable": false,
      "stateMutability": "nonpayable",
      "type": "function",
      "signature": "0xb6127f93"
    },
    {
      "constant": false,
      "inputs": [],
      "name": "complete",
      "outputs": [
        {
          "name": "",
          "type": "bool"
        }
      ],
      "payable": false,
      "stateMutability": "nonpayable",
      "type": "function",
      "signature": "0x522e1177"
    },
    {
      "constant": true,
      "inputs": [],
      "name": "challengeBalance",
      "outputs": [
        {
          "name": "",
          "type": "uint256"
        }
      ],
      "payable": false,
      "stateMutability": "view",
      "type": "function",
      "signature": "0xce72eda4"
    },
    {
      "constant": true,
      "inputs": [],
      "name": "expired",
      "outputs": [
        {
          "name": "",
          "type": "bool"
        }
      ],
      "payable": false,
      "stateMutability": "view",
      "type": "function",
      "signature": "0x4c2067c7"
    },
    {
      "constant": true,
      "inputs": [],
      "name": "getExpirationDate",
      "outputs": [
        {
          "name": "",
          "type": "uint256"
        }
      ],
      "payable": false,
      "stateMutability": "view",
      "type": "function",
      "signature": "0x5edf7d8b"
    },
    {
      "constant": true,
      "inputs": [],
      "name": "getDescription",
      "outputs": [
        {
          "name": "",
          "type": "string"
        }
      ],
      "payable": false,
      "stateMutability": "view",
      "type": "function",
      "signature": "0x1a092541"
    },
    {
      "constant": true,
      "inputs": [],
      "name": "getInitiator",
      "outputs": [
        {
          "name": "",
          "type": "address"
        }
      ],
      "payable": false,
      "stateMutability": "view",
      "type": "function",
      "signature": "0x84de1ea5"
    },
    {
      "constant": true,
      "inputs": [],
      "name": "getContender",
      "outputs": [
        {
          "name": "",
          "type": "address"
        }
      ],
      "payable": false,
      "stateMutability": "view",
      "type": "function",
      "signature": "0x8afdd5c1"
    },
    {
      "constant": false,
      "inputs": [],
      "name": "flushBalance",
      "outputs": [
        {
          "name": "",
          "type": "bool"
        }
      ],
      "payable": false,
      "stateMutability": "nonpayable",
      "type": "function",
      "signature": "0xb59bb621"
    },
    {
      "constant": false,
      "inputs": [],
      "name": "switchPause",
      "outputs": [
        {
          "name": "",
          "type": "bool"
        }
      ],
      "payable": false,
      "stateMutability": "nonpayable",
      "type": "function",
      "signature": "0x2cd981d4"
    }
  ],
  "bytecode": "0x6080604052604051610f4d380380610f4d833981018060405260c081101561002657600080fd5b810190808051906020019092919080519060200190929190805190602001909291908051906020019092919080519060200190929190805164010000000081111561007057600080fd5b8281019050602081018481111561008657600080fd5b81518560018202830111640100000000821117156100a357600080fd5b505092919050505060006100c7858585610280640100000000026401000000009004565b905060a0604051908101604052808873ffffffffffffffffffffffffffffffffffffffff1681526020018773ffffffffffffffffffffffffffffffffffffffff1681526020013073ffffffffffffffffffffffffffffffffffffffff16815260200183815260200182815250600260008201518160000160006101000a81548173ffffffffffffffffffffffffffffffffffffffff021916908373ffffffffffffffffffffffffffffffffffffffff16021790555060208201518160010160006101000a81548173ffffffffffffffffffffffffffffffffffffffff021916908373ffffffffffffffffffffffffffffffffffffffff16021790555060408201518160020160006101000a81548173ffffffffffffffffffffffffffffffffffffffff021916908373ffffffffffffffffffffffffffffffffffffffff160217905550606082015181600301908051906020019061022692919061029e565b5060808201518160040155905050336000806101000a81548173ffffffffffffffffffffffffffffffffffffffff021916908373ffffffffffffffffffffffffffffffffffffffff16021790555050505050505050610343565b6000603c8202610e1084026201518086024201010190509392505050565b828054600181600116156101000203166002900490600052602060002090601f016020900481019282601f106102df57805160ff191683800117855561030d565b8280016001018555821561030d579182015b8281111561030c5782518255916020019190600101906102f1565b5b50905061031a919061031e565b5090565b61034091905b8082111561033c576000816000905550600101610324565b5090565b90565b610bfb806103526000396000f3fe6080604052600436106100d0576000357c0100000000000000000000000000000000000000000000000000000000900463ffffffff1680631a092541146100d25780632129e25a146101625780632cd981d41461018d5780634c2067c7146101bc578063522e1177146101eb5780635c975abb1461021a5780635edf7d8b146102495780636f3921ee1461027457806384de1ea5146102a35780638afdd5c1146102fa5780639d9a7fe914610351578063b59bb62114610380578063b6127f93146103af578063ce72eda414610416575b005b3480156100de57600080fd5b506100e7610441565b6040518080602001828103825283818151815260200191508051906020019080838360005b8381101561012757808201518184015260208101905061010c565b50505050905090810190601f1680156101545780820380516001836020036101000a031916815260200191505b509250505060405180910390f35b34801561016e57600080fd5b506101776104e6565b6040518082815260200191505060405180910390f35b34801561019957600080fd5b506101a26104ec565b604051808215151515815260200191505060405180910390f35b3480156101c857600080fd5b506101d16105a4565b604051808215151515815260200191505060405180910390f35b3480156101f757600080fd5b506102006105c5565b604051808215151515815260200191505060405180910390f35b34801561022657600080fd5b5061022f6107f9565b604051808215151515815260200191505060405180910390f35b34801561025557600080fd5b5061025e61080c565b6040518082815260200191505060405180910390f35b34801561028057600080fd5b50610289610819565b604051808215151515815260200191505060405180910390f35b3480156102af57600080fd5b506102b861082c565b604051808273ffffffffffffffffffffffffffffffffffffffff1673ffffffffffffffffffffffffffffffffffffffff16815260200191505060405180910390f35b34801561030657600080fd5b5061030f610859565b604051808273ffffffffffffffffffffffffffffffffffffffff1673ffffffffffffffffffffffffffffffffffffffff16815260200191505060405180910390f35b34801561035d57600080fd5b50610366610886565b604051808215151515815260200191505060405180910390f35b34801561038c57600080fd5b50610395610899565b604051808215151515815260200191505060405180910390f35b3480156103bb57600080fd5b506103fc600480360360608110156103d257600080fd5b81019080803590602001909291908035906020019092919080359060200190929190505050610a2d565b604051808215151515815260200191505060405180910390f35b34801561042257600080fd5b5061042b610b6e565b6040518082815260200191505060405180910390f35b606060026003018054600181600116156101000203166002900480601f0160208091040260200160405190810160405280929190818152602001828054600181600116156101000203166002900480156104dc5780601f106104b1576101008083540402835291602001916104dc565b820191906000526020600020905b8154815290600101906020018083116104bf57829003601f168201915b5050505050905090565b60015481565b60008060009054906101000a900473ffffffffffffffffffffffffffffffffffffffff1673ffffffffffffffffffffffffffffffffffffffff163373ffffffffffffffffffffffffffffffffffffffff1614151561054957600080fd5b600060169054906101000a900460ff16156105815760008060166101000a81548160ff021916908315150217905550600090506105a1565b6001600060166101000a81548160ff021916908315150217905550600190505b90565b6000600260040154421015156105bd57600190506105c2565b600090505b90565b6000600260040154421015156105da57600080fd5b600060159054906101000a900460ff161515156105f657600080fd5b6000809054906101000a900473ffffffffffffffffffffffffffffffffffffffff1673ffffffffffffffffffffffffffffffffffffffff163373ffffffffffffffffffffffffffffffffffffffff1614151561065157600080fd5b600060169054906101000a900460ff1615151561066d57600080fd5b6001600060156101000a81548160ff02191690831515021790555060006002800160009054906101000a900473ffffffffffffffffffffffffffffffffffffffff1673ffffffffffffffffffffffffffffffffffffffff163111156107b6576002800160009054906101000a900473ffffffffffffffffffffffffffffffffffffffff1673ffffffffffffffffffffffffffffffffffffffff1631600181905550600260010160009054906101000a900473ffffffffffffffffffffffffffffffffffffffff1673ffffffffffffffffffffffffffffffffffffffff166108fc6002800160009054906101000a900473ffffffffffffffffffffffffffffffffffffffff1673ffffffffffffffffffffffffffffffffffffffff16319081150290604051600060405180830381858888f193505050501580156107b4573d6000803e3d6000fd5b505b7ff034adbccb0e6e0ef01b45231d49ec3f1a74c0fc0e29b6c3d9e2cb090b0711766001604051808215151515815260200191505060405180910390a16001905090565b600060169054906101000a900460ff1681565b6000600260040154905090565b600060149054906101000a900460ff1681565b6000600260000160009054906101000a900473ffffffffffffffffffffffffffffffffffffffff16905090565b6000600260010160009054906101000a900473ffffffffffffffffffffffffffffffffffffffff16905090565b600060159054906101000a900460ff1681565b60008060009054906101000a900473ffffffffffffffffffffffffffffffffffffffff1673ffffffffffffffffffffffffffffffffffffffff163373ffffffffffffffffffffffffffffffffffffffff161415156108f657600080fd5b6001600060156101000a81548160ff0219169083151502179055507f29b69b0ef017770509a3a02582408136e3e3492cdfec48431dfbeedbe39c7ce26002800160009054906101000a900473ffffffffffffffffffffffffffffffffffffffff1673ffffffffffffffffffffffffffffffffffffffff16316040518082815260200191505060405180910390a16000809054906101000a900473ffffffffffffffffffffffffffffffffffffffff1673ffffffffffffffffffffffffffffffffffffffff166108fc6002800160009054906101000a900473ffffffffffffffffffffffffffffffffffffffff1673ffffffffffffffffffffffffffffffffffffffff16319081150290604051600060405180830381858888f19350505050158015610a25573d6000803e3d6000fd5b506001905090565b60008060009054906101000a900473ffffffffffffffffffffffffffffffffffffffff1673ffffffffffffffffffffffffffffffffffffffff163373ffffffffffffffffffffffffffffffffffffffff16141515610a8a57600080fd5b60001515600060149054906101000a900460ff161515141515610aac57600080fd5b600060169054906101000a900460ff16151515610ac857600080fd5b6001600060146101000a81548160ff021916908315150217905550600260040154421115610b1257610afb848484610bb1565b600260040160008282540192505081905550610b27565b610b1d848484610bb1565b6002600401819055505b7f9ec47da117402e5ec2abbf08b216f5fe88d079a9db165cfbff8e5383e649e2556002600401546040518082815260200191505060405180910390a1600190509392505050565b60006002800160009054906101000a900473ffffffffffffffffffffffffffffffffffffffff1673ffffffffffffffffffffffffffffffffffffffff1631905090565b6000603c8202610e108402620151808602420101019050939250505056fea165627a7a72305820a763bf1d0a83ad1328fa69cd598a96e866961f23d1e0fa820856d781a04905b80029",
  "source": "pragma solidity >=0.4.0 <0.6.0;\n\nimport \"./SafeMath.sol\";\n\n/** @title Challenge contract */\ncontract Challenge {\n    using SafeMath for uint;\n    event ExtendExpiration(uint newExpiration);\n    event CompleteChallenge(bool flag);\n    event FlushBalance(uint balance);\n\n    address payable owner;\n    bool public extended;\n    bool public completed;\n    bool public paused;\n    uint public finalBalance;\n\n    struct Data {\n        address payable challenger;\n        address payable contender;\n        address payable trustee;\n        string description;\n        uint expirationDate;\n    }\n\n    Data private data;\n\n    modifier isOwner() {\n        require(msg.sender == owner);\n        _;\n    }\n\n    modifier notExtended() {\n        require(extended == false);\n        _;\n    }\n\n    modifier notExpired() {\n        require(now < data.expirationDate);\n        _;\n    }\n\n    modifier notCompleted() {\n        require(!completed);\n        _;\n    }\n\n    modifier notPaused() {\n        require(!paused);\n        _;\n    }\n\n    /*\n     * @param _challenger Challenger's address\n     * @param _contender Contender's address\n     * @param _days Number of days the contract is valid for\n     * @param _hours Number of hours the contract is valid for\n     * @param _minutes Number of minutes the contract is valid for\n     * @param _description A short description of the challenge\n    */\n    constructor(\n        address payable _challenger,\n        address payable _contender,\n        uint _days,\n        uint _hours,\n        uint _minutes,\n        string memory _description)\n        payable\n        public {\n\n        uint expirationConversion = calculateExpiration(_days, _hours, _minutes);\n        data = Data({challenger: _challenger,\n                     contender: _contender,\n                     trustee: address(this),\n                     expirationDate: expirationConversion,\n                     description: _description});\n        owner = msg.sender;\n    }\n\n    /** @dev Private function to normalize expiration timestamp\n      * @param _days Number of days\n      * @param _hours Number of hours\n      * @param _minutes Number of minutes\n      * @return New expiration Unix timestamp\n    */\n    function calculateExpiration(\n        uint _days,\n        uint _hours,\n        uint _minutes)\n        private\n        view\n        returns (uint) {\n\n        return now + (_days * 1 days) + (_hours * 1 hours) + (_minutes * 1 minutes);\n    }\n\n    /** @dev Public function to modify expiration date\n      * @param _days Number of days\n      * @param _hours Number of hours\n      * @param _minutes Number of minutes\n      * @return Boolean flag\n    */\n    function extendExpiration(\n        uint _days,\n        uint _hours,\n        uint _minutes)\n        public\n        isOwner()\n        notExtended()\n        notPaused()\n        returns (bool) {\n\n        extended = true;\n        if (now > data.expirationDate) {\n            data.expirationDate += calculateExpiration(_days, _hours, _minutes);\n        } else {\n            data.expirationDate = calculateExpiration(_days, _hours, _minutes);\n        }\n\n        emit ExtendExpiration(data.expirationDate);\n        return true;\n    }\n\n    /** @dev Complete the challenge and transfer balance to the contender's account\n      * @return Boolean flag\n    */\n    function complete()\n        public\n        notExpired()\n        notCompleted()\n        isOwner()\n        notPaused()\n        returns (bool) {\n\n        completed = true;\n        if (data.trustee.balance > 0) {\n            finalBalance = data.trustee.balance;\n            data.contender.transfer(data.trustee.balance);\n        }\n\n        emit CompleteChallenge(true);\n        return true;\n    }\n\n    /** @dev Return current contract balance\n      * @return Balance\n    */\n    function challengeBalance() view public returns (uint) {\n        return data.trustee.balance;\n    }\n\n    /** @dev Check if the contract has expired\n      * @return Boolean flag\n    */\n    function expired() public view returns (bool) {\n        if (now >= data.expirationDate) {\n            return true;\n        }\n        return false;\n    }\n\n    /** @dev Return contract expiration date\n      * @return Expiration date timestamp\n    */\n    function getExpirationDate() public view returns (uint) {\n        return data.expirationDate;\n    }\n\n    /** @dev Return contract description\n      * @return Description string\n    */\n    function getDescription() public view returns (string memory) {\n        return data.description;\n    }\n\n    /** @dev Return contract initiator (challenger)\n      * @return Initiator (challenger) address\n    */\n    function getInitiator() public view returns (address) {\n        return data.challenger;\n    }\n\n    /** @dev Return contract contender\n      * @return Contender address\n    */\n    function getContender() public view returns (address) {\n        return data.contender;\n    }\n\n    /** @dev Flush contract balance to \"recharge\" the deployment account\n      * @return Boolean flag\n    */\n    function flushBalance()\n        public\n        isOwner()\n        returns (bool) {\n        completed = true;\n        emit FlushBalance(data.trustee.balance);\n        owner.transfer(data.trustee.balance);\n        return true;\n    }\n\n\n    /** @dev Pauses the contract in case of found vulnerability\n      * @return Boolean flag\n    */\n    function switchPause()\n        public\n        isOwner()\n        returns (bool) {\n\n        if (paused) {\n            paused = false;\n            return false;\n        }\n        paused = true;\n        return true;\n    }\n\n    function() external payable {}\n}\n",
  "sourcePath": "/Users/kminevskiy/Code/crypto/consensys/final_project/youchallenge/assets/frontend/src/contracts/contracts/Challenge.sol",
  "compiler": {
    "name": "solc",
    "version": "0.5.0+commit.1d4f565a.Emscripten.clang"
  },
  "schemaVersion": "3.0.0",
  "updatedAt": "2019-01-24T05:58:30.255Z",
  "devdoc": {
    "methods": {
      "challengeBalance()": {
        "details": "Return current contract balance",
        "return": "Balance"
      },
      "complete()": {
        "details": "Complete the challenge and transfer balance to the contender's account",
        "return": "Boolean flag"
      },
      "expired()": {
        "details": "Check if the contract has expired",
        "return": "Boolean flag"
      },
      "extendExpiration(uint256,uint256,uint256)": {
        "details": "Public function to modify expiration date",
        "params": {
          "_days": "Number of days",
          "_hours": "Number of hours",
          "_minutes": "Number of minutes"
        },
        "return": "Boolean flag"
      },
      "flushBalance()": {
        "details": "Flush contract balance to \"recharge\" the deployment account",
        "return": "Boolean flag"
      },
      "getContender()": {
        "details": "Return contract contender",
        "return": "Contender address"
      },
      "getDescription()": {
        "details": "Return contract description",
        "return": "Description string"
      },
      "getExpirationDate()": {
        "details": "Return contract expiration date",
        "return": "Expiration date timestamp"
      },
      "getInitiator()": {
        "details": "Return contract initiator (challenger)",
        "return": "Initiator (challenger) address"
      },
      "switchPause()": {
        "details": "Pauses the contract in case of found vulnerability",
        "return": "Boolean flag"
      }
    },
    "title": "Challenge contract "
  },
  "userdoc": {
    "methods": {}
  }
}